{
  "_format": "hh-sol-artifact-1",
  "contractName": "Web3RSVP",
  "sourceName": "contracts/Web3RSVP.sol",
  "abi": [
    {
      "anonymous": false,
      "inputs": [
        {
          "indexed": false,
          "internalType": "bytes32",
          "name": "eventID",
          "type": "bytes32"
        },
        {
          "indexed": false,
          "internalType": "address",
          "name": "attendeeAddress",
          "type": "address"
        }
      ],
      "name": "ConfirmedAttendee",
      "type": "event"
    },
    {
      "anonymous": false,
      "inputs": [
        {
          "indexed": false,
          "internalType": "bytes32",
          "name": "eventID",
          "type": "bytes32"
        }
      ],
      "name": "DepositsPaidOut",
      "type": "event"
    },
    {
      "anonymous": false,
      "inputs": [
        {
          "indexed": false,
          "internalType": "bytes32",
          "name": "eventID",
          "type": "bytes32"
        },
        {
          "indexed": false,
          "internalType": "address",
          "name": "creatorAddress",
          "type": "address"
        },
        {
          "indexed": false,
          "internalType": "uint256",
          "name": "eventTimestamp",
          "type": "uint256"
        },
        {
          "indexed": false,
          "internalType": "uint256",
          "name": "maxCapacity",
          "type": "uint256"
        },
        {
          "indexed": false,
          "internalType": "uint256",
          "name": "deposit",
          "type": "uint256"
        },
        {
          "indexed": false,
          "internalType": "string",
          "name": "eventDataCID",
          "type": "string"
        }
      ],
      "name": "NewEventCreated",
      "type": "event"
    },
    {
      "anonymous": false,
      "inputs": [
        {
          "indexed": false,
          "internalType": "bytes32",
          "name": "eventID",
          "type": "bytes32"
        },
        {
          "indexed": false,
          "internalType": "address",
          "name": "attendeeAddress",
          "type": "address"
        }
      ],
      "name": "NewRSVP",
      "type": "event"
    },
    {
      "inputs": [
        {
          "internalType": "bytes32",
          "name": "eventId",
          "type": "bytes32"
        }
      ],
      "name": "confirmAllAttendees",
      "outputs": [],
      "stateMutability": "nonpayable",
      "type": "function"
    },
    {
      "inputs": [
        {
          "internalType": "bytes32",
          "name": "eventId",
          "type": "bytes32"
        },
        {
          "internalType": "address",
          "name": "attendee",
          "type": "address"
        }
      ],
      "name": "confirmAttendee",
      "outputs": [],
      "stateMutability": "nonpayable",
      "type": "function"
    },
    {
      "inputs": [
        {
          "internalType": "uint256",
          "name": "eventTimestamp",
          "type": "uint256"
        },
        {
          "internalType": "uint256",
          "name": "deposit",
          "type": "uint256"
        },
        {
          "internalType": "uint256",
          "name": "maxCapacity",
          "type": "uint256"
        },
        {
          "internalType": "string",
          "name": "eventDataCID",
          "type": "string"
        }
      ],
      "name": "createNewEvent",
      "outputs": [],
      "stateMutability": "nonpayable",
      "type": "function"
    },
    {
      "inputs": [
        {
          "internalType": "bytes32",
          "name": "eventId",
          "type": "bytes32"
        }
      ],
      "name": "createNewRSVP",
      "outputs": [],
      "stateMutability": "payable",
      "type": "function"
    },
    {
      "inputs": [
        {
          "internalType": "bytes32",
          "name": "",
          "type": "bytes32"
        }
      ],
      "name": "idToEvent",
      "outputs": [
        {
          "internalType": "bytes32",
          "name": "eventId",
          "type": "bytes32"
        },
        {
          "internalType": "string",
          "name": "eventDataCID",
          "type": "string"
        },
        {
          "internalType": "address",
          "name": "eventOwner",
          "type": "address"
        },
        {
          "internalType": "uint256",
          "name": "eventTimestamp",
          "type": "uint256"
        },
        {
          "internalType": "uint256",
          "name": "deposit",
          "type": "uint256"
        },
        {
          "internalType": "uint256",
          "name": "maxCapacity",
          "type": "uint256"
        },
        {
          "internalType": "bool",
          "name": "paidOut",
          "type": "bool"
        }
      ],
      "stateMutability": "view",
      "type": "function"
    },
    {
      "inputs": [
        {
          "internalType": "bytes32",
          "name": "eventId",
          "type": "bytes32"
        },
        {
          "internalType": "address",
          "name": "attendee",
          "type": "address"
        }
      ],
      "name": "returnClaim",
      "outputs": [],
      "stateMutability": "nonpayable",
      "type": "function"
    },
    {
      "inputs": [
        {
          "internalType": "bytes32",
          "name": "eventId",
          "type": "bytes32"
        }
      ],
      "name": "withdrawUnclaimedDeposits",
      "outputs": [],
      "stateMutability": "nonpayable",
      "type": "function"
    }
  ],
  "bytecode": "0x608060405234801561001057600080fd5b50612120806100206000396000f3fe60806040526004361061006f5760003560e01c80636dcdf2cd1161004e5780636dcdf2cd146100e2578063797475711461010b578063909ef02114610134578063acdbe012146101775761006f565b806292098c146100745780630d33441d1461009d57806317f0165a146100c6575b600080fd5b34801561008057600080fd5b5061009b60048036038101906100969190611528565b6101a0565b005b3480156100a957600080fd5b506100c460048036038101906100bf9190611644565b6103bc565b005b6100e060048036038101906100db9190611684565b610660565b005b3480156100ee57600080fd5b5061010960048036038101906101049190611644565b6108cd565b005b34801561011757600080fd5b50610132600480360381019061012d9190611684565b610a6f565b005b34801561014057600080fd5b5061015b60048036038101906101569190611684565b610f2e565b60405161016e9796959493929190611792565b60405180910390f35b34801561018357600080fd5b5061019e60048036038101906101999190611684565b611025565b005b600033308787876040516020016101bb959493929190611871565b60405160208183030381529060405280519060200120905060608060405180610120016040528084815260200186868080601f016020809104026020016040519081016040528093929190818152602001838380828437600081840152601f19601f8201169050808301925050505050505081526020013373ffffffffffffffffffffffffffffffffffffffff168152602001898152602001888152602001878152602001838152602001828152602001600015158152506000808581526020019081526020016000206000820151816000015560208201518160010190805190602001906102ab929190611356565b5060408201518160020160006101000a81548173ffffffffffffffffffffffffffffffffffffffff021916908373ffffffffffffffffffffffffffffffffffffffff160217905550606082015181600301556080820151816004015560a0820151816005015560c082015181600601908051906020019061032d9291906113dc565b5060e082015181600701908051906020019061034a9291906113dc565b506101008201518160080160006101000a81548160ff0219169083151502179055509050507f2553138c3f9c9008f266dbdbe9fc64f5b71e098d06ef714a190a65a8b9fc6bf383338a898b8a8a6040516103aa979695949392919061190c565b60405180910390a15050505050505050565b6000806000848152602001908152602001600020905060005b81600701805490508160ff1610156104ac578273ffffffffffffffffffffffffffffffffffffffff16826007018260ff168154811061041757610416611976565b5b9060005260206000200160009054906101000a900473ffffffffffffffffffffffffffffffffffffffff1673ffffffffffffffffffffffffffffffffffffffff161415610499576040517f08c379a0000000000000000000000000000000000000000000000000000000008152600401610490906119f1565b60405180910390fd5b80806104a490611a4d565b9150506103d5565b50600015158160080160009054906101000a900460ff16151514610505576040517f08c379a00000000000000000000000000000000000000000000000000000000081526004016104fc90611ac3565b60405180910390fd5b60008273ffffffffffffffffffffffffffffffffffffffff16826004015460405161052f90611b14565b60006040518083038185875af1925050503d806000811461056c576040519150601f19603f3d011682016040523d82523d6000602084013e610571565b606091505b50509050801561061a5781600701839080600181540180825580915050600190039060005260206000200160009091909190916101000a81548173ffffffffffffffffffffffffffffffffffffffff021916908373ffffffffffffffffffffffffffffffffffffffff1602179055507ff8d1583a733d83bdd3ef5464129d0a95a36d62b382d31c6d0467a61f4264381b8484604051610611929190611b29565b60405180910390a15b8061065a576040517f08c379a000000000000000000000000000000000000000000000000000000000815260040161065190611b9e565b60405180910390fd5b50505050565b60008060008381526020019081526020016000209050806004015434146106bc576040517f08c379a00000000000000000000000000000000000000000000000000000000081526004016106b390611c0a565b60405180910390fd5b8060030154421115610703576040517f08c379a00000000000000000000000000000000000000000000000000000000081526004016106fa90611c76565b60405180910390fd5b8060050154816006018054905010610750576040517f08c379a000000000000000000000000000000000000000000000000000000000815260040161074790611ce2565b60405180910390fd5b60005b81600601805490508160ff16101561082a573373ffffffffffffffffffffffffffffffffffffffff16826006018260ff168154811061079557610794611976565b5b9060005260206000200160009054906101000a900473ffffffffffffffffffffffffffffffffffffffff1673ffffffffffffffffffffffffffffffffffffffff161415610817576040517f08c379a000000000000000000000000000000000000000000000000000000000815260040161080e90611d4e565b60405180910390fd5b808061082290611a4d565b915050610753565b5080600601339080600181540180825580915050600190039060005260206000200160009091909190916101000a81548173ffffffffffffffffffffffffffffffffffffffff021916908373ffffffffffffffffffffffffffffffffffffffff1602179055507fb79f4240bbdd272d98e02a5db7f0cf156e5fc000961c517670a26eeeec63ed9082336040516108c1929190611b29565b60405180910390a15050565b600080600084815260200190815260200160002090508060020160009054906101000a900473ffffffffffffffffffffffffffffffffffffffff1673ffffffffffffffffffffffffffffffffffffffff163373ffffffffffffffffffffffffffffffffffffffff1614610975576040517f08c379a000000000000000000000000000000000000000000000000000000000815260040161096c90611dba565b60405180910390fd5b6000805b82600601805490508160ff161015610a1e578373ffffffffffffffffffffffffffffffffffffffff16836006018260ff16815481106109bb576109ba611976565b5b9060005260206000200160009054906101000a900473ffffffffffffffffffffffffffffffffffffffff1673ffffffffffffffffffffffffffffffffffffffff161415610a0b5760019150610a1e565b8080610a1690611a4d565b915050610979565b5080610a5f576040517f08c379a0000000000000000000000000000000000000000000000000000000008152600401610a5690611e26565b60405180910390fd5b610a6984846103bc565b50505050565b60008060008381526020019081526020016000206040518061012001604052908160008201548152602001600182018054610aa990611e75565b80601f0160208091040260200160405190810160405280929190818152602001828054610ad590611e75565b8015610b225780601f10610af757610100808354040283529160200191610b22565b820191906000526020600020905b815481529060010190602001808311610b0557829003601f168201915b505050505081526020016002820160009054906101000a900473ffffffffffffffffffffffffffffffffffffffff1673ffffffffffffffffffffffffffffffffffffffff1673ffffffffffffffffffffffffffffffffffffffff16815260200160038201548152602001600482015481526020016005820154815260200160068201805480602002602001604051908101604052809291908181526020018280548015610c2457602002820191906000526020600020905b8160009054906101000a900473ffffffffffffffffffffffffffffffffffffffff1673ffffffffffffffffffffffffffffffffffffffff1681526020019060010190808311610bda575b5050505050815260200160078201805480602002602001604051908101604052809291908181526020018280548015610cb257602002820191906000526020600020905b8160009054906101000a900473ffffffffffffffffffffffffffffffffffffffff1673ffffffffffffffffffffffffffffffffffffffff1681526020019060010190808311610c68575b505050505081526020016008820160009054906101000a900460ff161515151581525050905080610100015115610d1e576040517f08c379a0000000000000000000000000000000000000000000000000000000008152600401610d1590611ef3565b60405180910390fd5b62093a808160600151610d319190611f13565b421015610d73576040517f08c379a0000000000000000000000000000000000000000000000000000000008152600401610d6a90611fb5565b60405180910390fd5b806040015173ffffffffffffffffffffffffffffffffffffffff163373ffffffffffffffffffffffffffffffffffffffff1614610de5576040517f08c379a0000000000000000000000000000000000000000000000000000000008152600401610ddc90612021565b60405180910390fd5b60008160e00151518260c0015151610dfd9190612041565b90506000826080015182610e119190612075565b905060018361010001901515908115158152505060003373ffffffffffffffffffffffffffffffffffffffff1682604051610e4b90611b14565b60006040518083038185875af1925050503d8060008114610e88576040519150601f19603f3d011682016040523d82523d6000602084013e610e8d565b606091505b505090508015610ecf577f393073ea1365f611c3d2f240c992960d2b99dc81715555d3fc40fc55ba80af9c85604051610ec691906120cf565b60405180910390a15b80610ee7576000846101000190151590811515815250505b80610f27576040517f08c379a0000000000000000000000000000000000000000000000000000000008152600401610f1e90611b9e565b60405180910390fd5b5050505050565b6000602052806000526040600020600091509050806000015490806001018054610f5790611e75565b80601f0160208091040260200160405190810160405280929190818152602001828054610f8390611e75565b8015610fd05780601f10610fa557610100808354040283529160200191610fd0565b820191906000526020600020905b815481529060010190602001808311610fb357829003601f168201915b5050505050908060020160009054906101000a900473ffffffffffffffffffffffffffffffffffffffff16908060030154908060040154908060050154908060080160009054906101000a900460ff16905087565b6000806000838152602001908152602001600020604051806101200160405290816000820154815260200160018201805461105f90611e75565b80601f016020809104026020016040519081016040528092919081815260200182805461108b90611e75565b80156110d85780601f106110ad576101008083540402835291602001916110d8565b820191906000526020600020905b8154815290600101906020018083116110bb57829003601f168201915b505050505081526020016002820160009054906101000a900473ffffffffffffffffffffffffffffffffffffffff1673ffffffffffffffffffffffffffffffffffffffff1673ffffffffffffffffffffffffffffffffffffffff168152602001600382015481526020016004820154815260200160058201548152602001600682018054806020026020016040519081016040528092919081815260200182805480156111da57602002820191906000526020600020905b8160009054906101000a900473ffffffffffffffffffffffffffffffffffffffff1673ffffffffffffffffffffffffffffffffffffffff1681526020019060010190808311611190575b505050505081526020016007820180548060200260200160405190810160405280929190818152602001828054801561126857602002820191906000526020600020905b8160009054906101000a900473ffffffffffffffffffffffffffffffffffffffff1673ffffffffffffffffffffffffffffffffffffffff168152602001906001019080831161121e575b505050505081526020016008820160009054906101000a900460ff1615151515815250509050806040015173ffffffffffffffffffffffffffffffffffffffff163373ffffffffffffffffffffffffffffffffffffffff1614611300576040517f08c379a00000000000000000000000000000000000000000000000000000000081526004016112f790611dba565b60405180910390fd5b60005b8160c00151518160ff1610156113515761133e838360c001518360ff168151811061133157611330611976565b5b60200260200101516103bc565b808061134990611a4d565b915050611303565b505050565b82805461136290611e75565b90600052602060002090601f01602090048101928261138457600085556113cb565b82601f1061139d57805160ff19168380011785556113cb565b828001600101855582156113cb579182015b828111156113ca5782518255916020019190600101906113af565b5b5090506113d89190611466565b5090565b828054828255906000526020600020908101928215611455579160200282015b828111156114545782518260006101000a81548173ffffffffffffffffffffffffffffffffffffffff021916908373ffffffffffffffffffffffffffffffffffffffff160217905550916020019190600101906113fc565b5b5090506114629190611466565b5090565b5b8082111561147f576000816000905550600101611467565b5090565b600080fd5b600080fd5b6000819050919050565b6114a08161148d565b81146114ab57600080fd5b50565b6000813590506114bd81611497565b92915050565b600080fd5b600080fd5b600080fd5b60008083601f8401126114e8576114e76114c3565b5b8235905067ffffffffffffffff811115611505576115046114c8565b5b602083019150836001820283011115611521576115206114cd565b5b9250929050565b60008060008060006080868803121561154457611543611483565b5b6000611552888289016114ae565b9550506020611563888289016114ae565b9450506040611574888289016114ae565b935050606086013567ffffffffffffffff81111561159557611594611488565b5b6115a1888289016114d2565b92509250509295509295909350565b6000819050919050565b6115c3816115b0565b81146115ce57600080fd5b50565b6000813590506115e0816115ba565b92915050565b600073ffffffffffffffffffffffffffffffffffffffff82169050919050565b6000611611826115e6565b9050919050565b61162181611606565b811461162c57600080fd5b50565b60008135905061163e81611618565b92915050565b6000806040838503121561165b5761165a611483565b5b6000611669858286016115d1565b925050602061167a8582860161162f565b9150509250929050565b60006020828403121561169a57611699611483565b5b60006116a8848285016115d1565b91505092915050565b6116ba816115b0565b82525050565b600081519050919050565b600082825260208201905092915050565b60005b838110156116fa5780820151818401526020810190506116df565b83811115611709576000848401525b50505050565b6000601f19601f8301169050919050565b600061172b826116c0565b61173581856116cb565b93506117458185602086016116dc565b61174e8161170f565b840191505092915050565b61176281611606565b82525050565b6117718161148d565b82525050565b60008115159050919050565b61178c81611777565b82525050565b600060e0820190506117a7600083018a6116b1565b81810360208301526117b98189611720565b90506117c86040830188611759565b6117d56060830187611768565b6117e26080830186611768565b6117ef60a0830185611768565b6117fc60c0830184611783565b98975050505050505050565b60008160601b9050919050565b600061182082611808565b9050919050565b600061183282611815565b9050919050565b61184a61184582611606565b611827565b82525050565b6000819050919050565b61186b6118668261148d565b611850565b82525050565b600061187d8288611839565b60148201915061188d8287611839565b60148201915061189d828661185a565b6020820191506118ad828561185a565b6020820191506118bd828461185a565b6020820191508190509695505050505050565b82818337600083830152505050565b60006118eb83856116cb565b93506118f88385846118d0565b6119018361170f565b840190509392505050565b600060c082019050611921600083018a6116b1565b61192e6020830189611759565b61193b6040830188611768565b6119486060830187611768565b6119556080830186611768565b81810360a08301526119688184866118df565b905098975050505050505050565b7f4e487b7100000000000000000000000000000000000000000000000000000000600052603260045260246000fd5b7f414c524541445920434c41494d45440000000000000000000000000000000000600082015250565b60006119db600f836116cb565b91506119e6826119a5565b602082019050919050565b60006020820190508181036000830152611a0a816119ce565b9050919050565b7f4e487b7100000000000000000000000000000000000000000000000000000000600052601160045260246000fd5b600060ff82169050919050565b6000611a5882611a40565b915060ff821415611a6c57611a6b611a11565b5b600182019050919050565b7f414c52454144592050414944204f555400000000000000000000000000000000600082015250565b6000611aad6010836116cb565b9150611ab882611a77565b602082019050919050565b60006020820190508181036000830152611adc81611aa0565b9050919050565b600081905092915050565b50565b6000611afe600083611ae3565b9150611b0982611aee565b600082019050919050565b6000611b1f82611af1565b9150819050919050565b6000604082019050611b3e60008301856116b1565b611b4b6020830184611759565b9392505050565b7f4661696c656420746f2073656e64204574686572000000000000000000000000600082015250565b6000611b886014836116cb565b9150611b9382611b52565b602082019050919050565b60006020820190508181036000830152611bb781611b7b565b9050919050565b7f4e4f5420454e4f55474800000000000000000000000000000000000000000000600082015250565b6000611bf4600a836116cb565b9150611bff82611bbe565b602082019050919050565b60006020820190508181036000830152611c2381611be7565b9050919050565b7f414c52454144592048415050454e454400000000000000000000000000000000600082015250565b6000611c606010836116cb565b9150611c6b82611c2a565b602082019050919050565b60006020820190508181036000830152611c8f81611c53565b9050919050565b7f54686973206576656e7420686173207265616368656420636170616369747900600082015250565b6000611ccc601f836116cb565b9150611cd782611c96565b602082019050919050565b60006020820190508181036000830152611cfb81611cbf565b9050919050565b7f414c524541445920434f4e4649524d4544000000000000000000000000000000600082015250565b6000611d386011836116cb565b9150611d4382611d02565b602082019050919050565b60006020820190508181036000830152611d6781611d2b565b9050919050565b7f4e4f5420415554484f52495a4544000000000000000000000000000000000000600082015250565b6000611da4600e836116cb565b9150611daf82611d6e565b602082019050919050565b60006020820190508181036000830152611dd381611d97565b9050919050565b7f4e4f205253565020544f20434f4e4649524d0000000000000000000000000000600082015250565b6000611e106012836116cb565b9150611e1b82611dda565b602082019050919050565b60006020820190508181036000830152611e3f81611e03565b9050919050565b7f4e487b7100000000000000000000000000000000000000000000000000000000600052602260045260246000fd5b60006002820490506001821680611e8d57607f821691505b60208210811415611ea157611ea0611e46565b5b50919050565b7f414c524541445920504149440000000000000000000000000000000000000000600082015250565b6000611edd600c836116cb565b9150611ee882611ea7565b602082019050919050565b60006020820190508181036000830152611f0c81611ed0565b9050919050565b6000611f1e8261148d565b9150611f298361148d565b9250827fffffffffffffffffffffffffffffffffffffffffffffffffffffffffffffffff03821115611f5e57611f5d611a11565b5b828201905092915050565b7f544f4f204541524c590000000000000000000000000000000000000000000000600082015250565b6000611f9f6009836116cb565b9150611faa82611f69565b602082019050919050565b60006020820190508181036000830152611fce81611f92565b9050919050565b7f4d555354204245204556454e54204f574e455200000000000000000000000000600082015250565b600061200b6013836116cb565b915061201682611fd5565b602082019050919050565b6000602082019050818103600083015261203a81611ffe565b9050919050565b600061204c8261148d565b91506120578361148d565b92508282101561206a57612069611a11565b5b828203905092915050565b60006120808261148d565b915061208b8361148d565b9250817fffffffffffffffffffffffffffffffffffffffffffffffffffffffffffffffff04831182151516156120c4576120c3611a11565b5b828202905092915050565b60006020820190506120e460008301846116b1565b9291505056fea264697066735822122063bb904e1be0d87d2deb6ca4ba1d0462635b5cead3fcd17231333d4f11fce45b64736f6c63430008090033",
  "linkReferences": {},
  "deployedLinkReferences": {}
}